2014111411832220016302543Magnificent Menthol Disposable          1111000000001000000000000000000000000000000000001000000001000000000000000002000000001000000000000000000000000000000000001B1011M    
2014111411832220016302550blu Disposable Classic Tobacco          1111000000002000000000000000002000000000000000003000000003000000000000000002000000006000000000000000000000000000000000006B1011C    
2014111411832220016 02567High Nicotine Cartridge Classic Tobacco 1111000000001000000000000000002000000000000000001000000001000000000000000002000000002000000000000000000000000000000000001B5002B    
2014111411832220016 02581High Nicotine Cartridge Magnificent Ment1111000000001000000000000000000000000000000000001000000000000000000000000002000000000000000000000000000000000000000000001B5001B    
2014111411832220016 03365High Nicotine Cartridge Vivid Vanilla   1111000000001000000000000000000000000000000000000000000001000000000000000000000000002000000000000000000000000000000000000B5005B    
2014111411832220016104349Blu Starter Pack Magnificent Menthol    1111000000001000000000000000000000000000000000000000000001000000000000000000000000001000000000000000000000000000000000001B0002B    
2014111411832220016104578Blu Starter Pack Variety                1111000000001000000000000000000000000000000000001000000000000000000000000001000000002000000000000000000000000000000000001B0003B    
2014111411832220016 02604High Nicotine Cartridge Cherry Crush    1111000000000000000000000000001000000000000000001000000000000000000000000000000000001000000000000000000000000000000000001B5004B    
2014111411832220016 02628High Nicotine Cartridge Java Jolt       1111000000000000000000000000001000000000000000000000000000000000000000000000000000000000000000000000000000000000000000000B5003B    
2014111411832220016104332Blu Starter Pack Classic Tobacco        1111000000000000000000000000000000000000000000001000000000000000000000000001000000003000000000000000000000000000000000003B0001B    
2014111411832220016 02734No Nicotine Cartridge Magnificent Mentho1111000000000000000000000000000000000000000000000000000001000000000000000000000000000000000000000000000000000000000000000B5061B    
2014111411832220016 02710No Nicotine Cartridge Classic Tobacco   1111000000000000000000000000000000000000000000000000000000000000000000000000000000000000000000000000000000000000000000001B5062B    
2014111411158500001302543Magnificent Menthol Disposable          1111000000002000000001000000004000000000000000002000000002000000002000000000000000002000000002000000004000000000000000003B1011M    
2014111411158500001302550blu Disposable Classic Tobacco          1111000000006000000006000000004000000000000000006000000006000000007000000000000000009000000007000000006000000000000000009B1011C    
2014111411158500001 02567High Nicotine Cartridge Classic Tobacco 1111000000002000000002000000001000000000000000001000000001000000003000000000000000001000000002000000002000000000000000002B5002B    
2014111411158500001 03365High Nicotine Cartridge Vivid Vanilla   1111000000001000000002000000000000000000000000003000000002000000002000000000000000001000000002000000001000000000000000002B5005B    
2014111411158500001303504Cherry Crush Disposable                 1111000000016000000007000000006000000000000000007000000003000000006000000000000000006000000010000000000000000000000000000B1013CH   
2014111411158500001104332Blu Starter Pack Classic Tobacco        1111000000001000000001000000001000000000000000002000000002000000001000000000000000001000000001000000001000000000000000000B0001B    
2014111411158500001104578Blu Starter Pack Variety                1111000000001000000001000000001000000000000000001000000000000000001000000000000000001000000002000000001000000000000000001B0003B    
2014111411158500001 02604High Nicotine Cartridge Cherry Crush    1111000000000000000001000000000000000000000000001000000002000000002000000000000000000000000003000000001-00000001000000002B5004B    
2014111411001230002302543Magnificent Menthol Disposable          1111000000001000000000000000000000000000000000000000000000000000000000000000000000000000000000000000000000000000000000001B1011M    
2014111411001230002302550blu Disposable Classic Tobacco          1111000000000000000000000000000000000000000000000000000000000000000000000000000000000000000000000000000000000000000000002B1011C    
2014111411001230002 02604High Nicotine Cartridge Cherry Crush    1111000000000000000000000000000000000000000000000000000000000000000000000000000000000000000000000000000000000000000000001B5004B    
2014111411001230002 02628High Nicotine Cartridge Java Jolt       1111000000000000000000000000000000000000000000000000000000000000000000000000000000000000000000000000000000000000000000001B5003B    
2014111411001230002 03365High Nicotine Cartridge Vivid Vanilla   1111000000000000000000000000000000000000000000000000000000000000000000000000000000000000000000000000000000000000000000001B5005B    
2014111411023000003302543Magnificent Menthol Disposable          1111000000005000000004000000011000000011000000005000000003000000002000000003000000002000000006000000008000000002000000008B1011M    
2014111411023000003302550blu Disposable Classic Tobacco          1111000000026000000010000000019000000024000000017000000007000000003000000010000000010000000019000000018000000014000000015B1011C    
2014111411023000003 02567High Nicotine Cartridge Classic Tobacco 1111000000001000000001000000000000000003000000001000000001000000000000000001000000003000000000000000002000000000000000001B5002B    
2014111411023000003 02581High Nicotine Cartridge Magnificent Ment1111000000001000000000000000000000000001000000000000000001000000000000000000000000001000000000000000000000000000000000002B5001B    
2014111411023000003303504Cherry Crush Disposable                 1111000000010000000006000000011000000011000000009000000003000000005000000001000000003000000004000000006000000004000000004B1013CH   
2014111411023000003 03365High Nicotine Cartridge Vivid Vanilla   1111000000000000000001000000001000000001000000000000000001000000000000000001000000000000000000000000001000000000000000000B5005B    
2014111411023000003 02604High Nicotine Cartridge Cherry Crush    1111000000000000000000000000001000000001000000001000000000000000000000000000000000001000000000000000001000000000000000001B5004B    
2014111411023000003104349Blu Starter Pack Magnificent Menthol    1111000000000000000000000000001000000000000000001000000001000000000000000000000000000000000000000000001000000000000000001B0002B    
2014111411023000003104332Blu Starter Pack Classic Tobacco        1111000000000000000000000000000000000000000000001000000002000000000000000000000000000000000000000000002000000001000000002B0001B    
2014111411023000003104578Blu Starter Pack Variety                1111000000000000000000000000000000000000000000001000000000000000000000000000000000000000000000000000001000000000000000000B0003B    
2014111411881300009 02581High Nicotine Cartridge Magnificent Ment1111000000001000000000000000000000000000000000000000000000000000000000000000000000000000000000000000000000000001000000000B5001B    
2014111411881300009302550blu Disposable Classic Tobacco          1111000000000000000001000000000000000000000000000000000001000000000000000000000000000000000000000000000000000002000000000B1011C    
2014111411881300009 02567High Nicotine Cartridge Classic Tobacco 1111000000000000000001000000000000000000000000000000000000000000000000000000000000000000000000000000000000000001000000000B5002B    
2014111411881300009303504Cherry Crush Disposable                 1111000000000000000000000000000000000000000000000000000000000000000000000003000000000000000000000000000000000002000000000B1013CH   
2014111411583350005302543Magnificent Menthol Disposable          1111000000012000000000000000000000000008000000006000000000000000000000000019000000000000000000000000000000000000000000000B1011M    
2014111411583350005302550blu Disposable Classic Tobacco          1111000000010000000012000000000000000015000000014000000016000000000000000033000000018000000020000000000000000018000000019B1011C    
2014111411583350005 02567High Nicotine Cartridge Classic Tobacco 1111000000003000000000000000000000000004000000000000000000000000000000000000000000000000000000000000000000000000000000000B5002B    
2014111411583350005 02604High Nicotine Cartridge Cherry Crush    1111000000002000000000000000000000000004000000006000000003000000000000000007000000004000000005000000008000000004000000000B5004B    
2014111411583350005 03365High Nicotine Cartridge Vivid Vanilla   1111000000002000000000000000002000000000000000006000000001000000000000000004000000002000000003000000002000000007000000006B5005B    
2014111411583350005303504Cherry Crush Disposable                 1111000000008000000008000000008000000011000000000000000008000000008000000010000000009000000000000000000000000000000000000B1013CH   
2014111411583350005104578Blu Starter Pack Variety                1111000000003000000000000000003000000003000000004000000002000000000000000003000000002000000002000000003000000003000000003B0003B    
2014111411583350005 02581High Nicotine Cartridge Magnificent Ment1111000000000000000000000000000000000006000000003000000000000000000000000018000000006000000010000000004000000000000000000B5001B    
2014111411583350005104332Blu Starter Pack Classic Tobacco        1111000000000000000000000000000000000000000000000000000004000000000000000017000000003000000007000000005000000003000000000B0001B    
2014111411583350005 02628High Nicotine Cartridge Java Jolt       1111000000000000000000000000000000000000000000000000000000000000000000000001000000000000000000000000000000000000000000000B5003B    
2014111411583350005104349Blu Starter Pack Magnificent Menthol    1111000000000000000000000000000000000000000000000000000000000000000000000018000000005000000005000000002000000002000000003B0002B    
2014111411835080011302543Magnificent Menthol Disposable          1111000000004000000000000000000000000000000000000000000000000000000000000000000000005000000000000000000000000000000000005B1011M    
2014111411835080011302550blu Disposable Classic Tobacco          1111000000003000000000000000000000000000000000000000000000000000018000000000000000010000000000000000000000000000000000010B1011C    
2014111411835080011 02604High Nicotine Cartridge Cherry Crush    1111000000002000000000000000000000000000000000000000000000000000000000000000000000001000000000000000000000000000000000002B5004B    
2014111411835080011 03365High Nicotine Cartridge Vivid Vanilla   1111000000001000000000000000000000000000000000000000000000000000000000000000000000000000000000000000000000000000000000000B5005B    
2014111411835080011303504Cherry Crush Disposable                 1111000000007000000000000000000000000000000000000000000000000000000000000000000000000000000000000000000000000000000000000B1013CH   
2014111411835080011104332Blu Starter Pack Classic Tobacco        1111000000001000000000000000000000000000000000000000000000000000000000000000000000000000000000000000000000000000000000000B0001B    
2014111411835080011104578Blu Starter Pack Variety                1111000000000000000000000000000000000000000000000000000000000000000000000000000000000000000000000000000000000000000000002B0003B    
2014111411243540003302543Magnificent Menthol Disposable          1111000000001000000000000000000000000000000000000000000001000000000000000000000000000000000000000000000000000000000000000B1011M    
2014111411243540003302550blu Disposable Classic Tobacco          1111000000002000000000000000000000000001000000001000000002000000000000000000000000002000000000000000000000000002000000000B1011C    
2014111411243540003 02581High Nicotine Cartridge Magnificent Ment1111000000001000000000000000000000000000000000000000000000000000000000000000000000000000000000000000000000000001000000000B5001B    
2014111411243540003 03365High Nicotine Cartridge Vivid Vanilla   1111000000001000000000000000000000000000000000000000000000000000000000000000000000000000000000000000000000000001000000000B5005B    
2014111411243540003303504Cherry Crush Disposable                 1111000000002000000000000000000000000001000000001000000000000000000000000000000000000000000000000000000000000000000000000B1013CH   
2014111411243540003104332Blu Starter Pack Classic Tobacco        1111000000001000000000000000000000000000000000000000000000000000000000000000000000000000000000000000000000000000000000000B0001B    
2014111411243540003 02567High Nicotine Cartridge Classic Tobacco 1111000000000000000000000000000000000000000000000000000000000000000000000000000000000000000000000000000000000001000000000B5002B    
2014111411121810007 02567High Nicotine Cartridge Classic Tobacco 1111000000001000000000000000001000000000000000000000000000000000000000000000000000000000000000000000000000000000000000000B5002B    
2014111411121810007 02581High Nicotine Cartridge Magnificent Ment1111000000001000000000000000000000000000000000000000000000000000000000000000000000000000000000000000000000000000000000000B5001B    
2014111411121810007302543Magnificent Menthol Disposable          1111000000000000000000000000001000000000000000000000000002000000000000000000000000000000000000000000000000000000000000000B1011M    
2014111411121810007302550blu Disposable Classic Tobacco          1111000000000000000000000000001000000000000000000000000002000000000000000001000000001000000000000000000000000001000000000B1011C    
2014111411121810007303504Cherry Crush Disposable                 1111000000000000000000000000001000000000000000000000000000000000000000000000000000000000000000000000000000000000000000000B1013CH   
2014111411121810007104578Blu Starter Pack Variety                1111000000000000000000000000000000000000000000000000000001000000000000000000000000000000000000000000000000000000000000000B0003B    
2014111411121810007 03365High Nicotine Cartridge Vivid Vanilla   1111000000000000000000000000000000000000000000000000000000000000000000000000000000001000000000000000000000000000000000000B5005B    
2014111411583400008302543Magnificent Menthol Disposable          1111000000003000000002000000000000000000000000003000000003000000000000000003000000000000000000000000000000000000000000000B1011M    
2014111411583400008302550blu Disposable Classic Tobacco          1111000000007000000006000000000000000008000000008000000008000000010000000008000000000000000000000000000000000000-00000001B1011C    
2014111411583400008 02604High Nicotine Cartridge Cherry Crush    1111000000001000000001000000001000000002000000001000000000000000000000000002000000001000000000000000000000000003000000000B5004B    
2014111411583400008303504Cherry Crush Disposable                 1111000000003000000002000000002000000003000000005000000000000000000000000003000000003000000000000000000000000000-00000001B1013CH   
2014111411583400008104578Blu Starter Pack Variety                1111000000002000000000000000000000000003000000006000000000000000005000000000000000003000000002000000000000000004000000000B0003B    
2014111411583400008 03365High Nicotine Cartridge Vivid Vanilla   1111000000000000000000000000002000000004000000005000000000000000001000000000000000001000000000000000000000000000000000000B5005B    
2014111411583400008104332Blu Starter Pack Classic Tobacco        1111000000000000000000000000000000000005000000008000000000000000004000000011000000004000000008000000000000000004000000000B0001B    
2014111411583400008104349Blu Starter Pack Magnificent Menthol    1111000000000000000000000000000000000000000000008000000000000000000000000011000000003000000007000000000000000000000000000B0002B    
2014111411742100085302543Magnificent Menthol Disposable          1111000000003000000001000000001000000001000000001000000001000000001000000000000000001000000002000000000000000001000000001B1011M    
2014111411742100085302550blu Disposable Classic Tobacco          1111000000006000000003000000002000000002000000003000000003000000003000000003000000002000000003000000000000000003000000007B1011C    
2014111411742100085 02567High Nicotine Cartridge Classic Tobacco 1111000000003000000001000000001000000002000000003000000001000000002000000002000000001000000000000000003000000004000000002B5002B    
2014111411742100085 02581High Nicotine Cartridge Magnificent Ment1111000000003000000000000000001000000001000000002000000001000000002000000000000000002000000000000000004000000002000000002B5001B    
2014111411742100085 02604High Nicotine Cartridge Cherry Crush    1111000000002000000000000000001000000001000000001000000000000000000000000001000000001000000003000000003000000002000000002B5004B    
2014111411742100085 03365High Nicotine Cartridge Vivid Vanilla   1111000000001000000000000000000000000001000000001000000001000000001000000001000000001000000003000000001000000001000000001B5005B    
2014111411742100085303504Cherry Crush Disposable                 1111000000003000000001000000002000000003000000000000000000000000000000000000000000000000000000000000000000000000000000000B1013CH   
2014111411742100085104332Blu Starter Pack Classic Tobacco        1111000000002000000001000000002000000001000000001000000001000000000000000001000000001000000001000000000000000001000000002B0001B    
2014111411742100085104349Blu Starter Pack Magnificent Menthol    1111000000001000000001000000000000000000000000000000000000000000000000000000000000000000000000000000000000000000000000000B0002B    
2014111411742100085104578Blu Starter Pack Variety                1111000000001000000002000000002000000000000000001000000000000000001000000001000000001000000001000000000000000001000000001B0003B    
2014111411870810001302550blu Disposable Classic Tobacco          1111000000002000000000000000000000000001000000000000000000000000002000000000000000000000000001000000000000000000000000000B1011C    
2014111411870810001302543Magnificent Menthol Disposable          1111000000000000000000000000000000000001000000000000000000000000000000000000000000000000000000000000000000000000000000000B1011M    
2014111411870810001104332Blu Starter Pack Classic Tobacco        1111000000000000000000000000000000000001000000000000000000000000000000000000000000000000000000000000000000000000000000000B0001B    
2014111411870810001 02710No Nicotine Cartridge Classic Tobacco   1111000000000000000000000000000000000000000000000000000000000000000000000000000000000000000001000000000000000000000000000B5062B    
2014111411909900004302543Magnificent Menthol Disposable          1111000000001000000001000000000000000000000000000000000001000000000000000000000000000000000000000000000000000001000000000B1011M    
2014111411909900004 02604High Nicotine Cartridge Cherry Crush    1111000000001000000000000000000000000000000000000000000000000000000000000000000000000000000000000000000000000001000000000B5004B    
2014111411909900004 02710No Nicotine Cartridge Classic Tobacco   1111000000001000000000000000000000000000000000000000000000000000000000000000000000000000000000000000000000000000000000000B5062B    
2014111411909900004 02758No Nicotine Cartridge Cherry Crush      1111000000001000000000000000000000000000000000000000000000000000000000000000000000000000000000000000000000000000000000000B5064B    
2014111411909900004 02772No Nicotine Cartridge Java Jolt         1111000000001000000000000000000000000000000000000000000000000000000000000000000000000000000000000000000000000000000000000B5063B    
2014111411909900004104332Blu Starter Pack Classic Tobacco        1111000000001000000001000000000000000000000000000000000000000000000000000000000000000000000000000000000000000001000000000B0001B    
2014111411909900004302550blu Disposable Classic Tobacco          1111000000000000000001000000000000000000000000003000000002000000000000000000000000000000000000000000000000000002000000000B1011C    
2014111411909900004 02567High Nicotine Cartridge Classic Tobacco 1111000000000000000001000000000000000000000000001000000000000000000000000000000000000000000000000000000000000001000000000B5002B    
2014111411909900004 02581High Nicotine Cartridge Magnificent Ment1111000000000000000001000000000000000000000000000000000001000000000000000000000000000000000000000000000000000000000000000B5001B    
2014111411909900004104578Blu Starter Pack Variety                1111000000000000000001000000000000000000000000000000000001000000000000000000000000000000000000000000000000000000000000000B0003B    
2014111411909900004 03365High Nicotine Cartridge Vivid Vanilla   1111000000000000000000000000000000000000000000001000000000000000000000000000000000000000000000000000000000000000000000000B5005B    
2014111411909900004104349Blu Starter Pack Magnificent Menthol    1111000000000000000000000000000000000000000000001000000000000000000000000000000000000000000000000000000000000000000000000B0002B    
2014111411278610003302543Magnificent Menthol Disposable          1111000000001000000001000000001000000001000000001000000000000000001000000000000000001000000001000000000000000000000000000B1011M    
2014111411278610003302550blu Disposable Classic Tobacco          1111000000002000000001000000003000000001000000002000000000000000000000000000000000004000000001000000002000000000000000004B1011C    
2014111411278610003 02567High Nicotine Cartridge Classic Tobacco 1111000000000000000001000000000000000000000000001000000000000000002000000000000000002000000000000000001000000001000000000B5002B    
2014111411278610003 02581High Nicotine Cartridge Magnificent Ment1111000000000000000001000000001000000001000000000000000000000000000000000000000000001000000000000000000000000001000000000B5001B    
2014111411278610003104578Blu Starter Pack Variety                1111000000000000000001000000001000000000000000000000000000000000001000000000000000000000000001000000000000000000000000001B0003B    
2014111411278610003 02604High Nicotine Cartridge Cherry Crush    1111000000000000000000000000001000000000000000000000000000000000001000000000000000001000000000000000001000000000000000000B5004B    
2014111411278610003 02628High Nicotine Cartridge Java Jolt       1111000000000000000000000000001000000000000000000000000000000000000000000000000000000000000000000000000000000000000000000B5003B    
2014111411278610003104332Blu Starter Pack Classic Tobacco        1111000000000000000000000000001000000000000000001000000000000000001000000000000000001000000000000000000000000001000000000B0001B    
2014111411278610003104349Blu Starter Pack Magnificent Menthol    1111000000000000000000000000000000000001000000001000000000000000000000000000000000000000000000000000001000000000000000000B0002B    
2014111411278610003 02772No Nicotine Cartridge Java Jolt         1111000000000000000000000000000000000000000000000000000000000000001000000000000000000000000000000000000000000000000000000B5063B    
2014111411278610003 03365High Nicotine Cartridge Vivid Vanilla   1111000000000000000000000000000000000000000000000000000000000000000000000000000000002000000000000000000000000000000000001B5005B    
2014111411278610003 02710No Nicotine Cartridge Classic Tobacco   1111000000000000000000000000000000000000000000000000000000000000000000000000000000000000000001000000000000000000000000002B5062B    
2014111411366120005302543Magnificent Menthol Disposable          1111000000002000000001000000001000000001000000000000000003000000001000000001000000001000000000000000000000000002000000002B1011M    
2014111411366120005302550blu Disposable Classic Tobacco          1111000000006000000003000000004000000003000000000000000005000000003000000002000000003000000000000000002000000009000000004B1011C    
2014111411366120005303504Cherry Crush Disposable                 1111000000003000000001000000002000000000000000000000000000000000000000000000000000000000000000000000000000000000000000000B1013CH   
2014111411366120005 02581High Nicotine Cartridge Magnificent Ment1111000000000000000000000000000000000001000000000000000000000000000000000000000000000000000000000000000000000001000000000B5001B    
2014111411366120005 02710No Nicotine Cartridge Classic Tobacco   1111000000000000000000000000000000000000000000000000000001000000000000000000000000000000000000000000000000000000000000000B5062B    
2014111411366120005104349Blu Starter Pack Magnificent Menthol    1111000000000000000000000000000000000000000000000000000000000000000000000001000000001000000000000000000000000000000000001B0002B    
2014111411366120005104332Blu Starter Pack Classic Tobacco        1111000000000000000000000000000000000000000000000000000000000000000000000000000000001000000000000000001000000000000000000B0001B    
2014111411366120005 02567High Nicotine Cartridge Classic Tobacco 1111000000000000000000000000000000000000000000000000000000000000000000000000000000000000000000000000002000000001000000000B5002B    
2014111411366120005 03365High Nicotine Cartridge Vivid Vanilla   1111000000000000000000000000000000000000000000000000000000000000000000000000000000000000000000000000000000000001000000000B5005B    
2014111411366210004302543Magnificent Menthol Disposable          1111000000001000000000000000001000000000000000001000000000000000001000000000000000001000000001000000000000000001000000001B1011M    
2014111411366210004302550blu Disposable Classic Tobacco          1111000000001000000001000000002000000002000000002000000002000000001000000003000000002000000001000000000000000003000000003B1011C    
2014111411366210004 02567High Nicotine Cartridge Classic Tobacco 1111000000001000000001000000000000000001000000001000000001000000000000000001000000000000000002000000000000000001000000001B5002B    
2014111411366210004104332Blu Starter Pack Classic Tobacco        1111000000001000000001000000000000000000000000000-00000001000000001000000000000000000000000000000000000000000001000000001B0001B    
2014111411366210004 02604High Nicotine Cartridge Cherry Crush    1111000000000000000001000000000000000000000000000000000001000000000000000000000000001000000000000000000000000001000000000B5004B    
2014111411366210004 03365High Nicotine Cartridge Vivid Vanilla   1111000000000000000001000000000000000000000000000000000000000000001000000000000000000000000000000000000000000000000000000B5005B    
2014111411366210004 02581High Nicotine Cartridge Magnificent Ment1111000000000000000000000000000000000001000000000000000001000000000000000000000000000000000000000000000000000000000000000B5001B    
2014111411366210004104578Blu Starter Pack Variety                1111000000000000000000000000000000000001000000001000000000000000000000000000000000001000000000000000000000000001000000000B0003B    
2014111411366210004104349Blu Starter Pack Magnificent Menthol    1111000000000000000000000000000000000000000000001000000000000000000000000000000000000000000000000000000000000001000000000B0002B    
2014111411366210004 02628High Nicotine Cartridge Java Jolt       1111000000000000000000000000000000000000000000000000000000000000000000000000000000000000000000000000000000000001000000000B5003B    
2014111411378280003302543Magnificent Menthol Disposable          1111000000001000000001000000001000000001000000001000000001000000000000000001000000000000000001000000001000000000000000002B1011M    
2014111411378280003302550blu Disposable Classic Tobacco          1111000000003000000004000000000000000007000000000000000003000000005000000002000000005000000004000000003000000000000000002B1011C    
2014111411378280003 02604High Nicotine Cartridge Cherry Crush    1111000000001000000000000000000000000000000000000000000000000000000000000000000000000000000000000000000000000000000000000B5004B    
2014111411378280003303504Cherry Crush Disposable                 1111000000001000000001000000000000000001000000000000000001000000002000000001000000001000000000000000000000000000000000000B1013CH   
2014111411378280003104332Blu Starter Pack Classic Tobacco        1111000000001000000000000000000000000001000000000000000001000000000000000000000000001000000000000000000000000000000000000B0001B    
2014111411378280003104578Blu Starter Pack Variety                1111000000001000000000000000000000000000000000000000000000000000001000000000000000000000000000000000000000000000000000000B0003B    
2014111411378280003 02567High Nicotine Cartridge Classic Tobacco 1111000000000000000000000000002000000002000000000000000000000000000000000000000000000000000002000000000000000000000000001B5002B    
2014111411378280003 02581High Nicotine Cartridge Magnificent Ment1111000000000000000000000000001000000000000000000000000000000000001000000000000000000000000000000000000000000000000000000B5001B    
2014111411378280003104349Blu Starter Pack Magnificent Menthol    1111000000000000000000000000000000000000000000000000000000000000001000000000000000000000000000000000000000000000000000000B0002B    
2014111411498320002302543Magnificent Menthol Disposable          1111000000002000000002000000000000000002000000003000000002000000001000000001000000000000000003000000001000000004000000002B1011M    
2014111411498320002302550blu Disposable Classic Tobacco          1111000000005000000002000000000000000007000000007000000003000000002000000002000000001000000006000000005000000007000000004B1011C    
2014111411498320002 02604High Nicotine Cartridge Cherry Crush    1111000000001000000001000000000000000001000000000000000000000000000000000000000000000000000000000000001000000001000000001B5004B    
2014111411498320002303504Cherry Crush Disposable                 1111000000001000000002000000000000000004000000003000000003000000001000000000000000002000000003000000000000000000000000000B1013CH   
2014111411498320002 02567High Nicotine Cartridge Classic Tobacco 1111000000000000000001000000000000000001000000001000000000000000000000000000000000000000000002000000001000000001000000002B5002B    
2014111411498320002104332Blu Starter Pack Classic Tobacco        1111000000000000000001000000000000000001000000000000000000000000000000000000000000001000000001000000000000000002000000001B0001B    
2014111411498320002104578Blu Starter Pack Variety                1111000000000000000001000000000000000000000000000000000000000000001000000000000000000000000000000000001000000000000000002B0003B    
2014111411498320002 02581High Nicotine Cartridge Magnificent Ment1111000000000000000000000000000000000001-00000001000000000000000000000000000000000000000000001000000000000000001000000001B5001B    
2014111411498320002 03365High Nicotine Cartridge Vivid Vanilla   1111000000000000000000000000000000000001000000000000000000000000001000000000000000001000000000000000000000000000000000001B5005B    
2014111411498320002104349Blu Starter Pack Magnificent Menthol    1111000000000000000000000000000000000001000000000000000000000000000000000000000000000000000001000000000000000000000000001B0002B    
2014111411498320002 02628High Nicotine Cartridge Java Jolt       1111000000000000000000000000000000000000000000000000000000000000000000000001000000000000000000000000000000000000000000000B5003B    
2014111411498320002 02710No Nicotine Cartridge Classic Tobacco   1111000000000000000000000000000000000000000000000000000000000000000000000000000000001000000000000000000000000001000000000B5062B    
2014111411836730003302543Magnificent Menthol Disposable          1111000000003000000002000000000000000000000000000000000000000000004000000002000000003000000002000000000000000000000000000B1011M    
2014111411836730003302550blu Disposable Classic Tobacco          1111000000001000000006000000006000000000000000010000000000000000006000000004000000004000000005000000004000000000000000004B1011C    
2014111411836730003303504Cherry Crush Disposable                 1111000000006000000000000000000000000000000000000000000000000000000000000000000000000000000000000000000000000000000000000B1013CH   
2014111411836730003 02604High Nicotine Cartridge Cherry Crush    1111000000000000000002000000001000000000000000000000000000000000000000000002000000000000000000000000000000000000000000008B5004B    
2014111411836730003 03365High Nicotine Cartridge Vivid Vanilla   1111000000000000000001000000000000000001000000000000000000000000000000000003000000000000000001000000000000000000000000002B5005B    
2014111411836730003 02581High Nicotine Cartridge Magnificent Ment1111000000000000000000000000001000000000000000000000000000000000000000000001000000000000000002000000001000000000000000000B5001B    
2014111411836730003104349Blu Starter Pack Magnificent Menthol    1111000000000000000000000000001000000000000000001000000000000000000000000000000000001000000000000000000000000000000000002B0002B    
2014111411836730003 02567High Nicotine Cartridge Classic Tobacco 1111000000000000000000000000000000000003000000001000000000000000000000000003000000000000000000000000003000000000000000007B5002B    
2014111411836730003104332Blu Starter Pack Classic Tobacco        1111000000000000000000000000000000000001000000000000000000000000001000000001000000000000000000000000000000000000000000002B0001B    
2014111411836730003104578Blu Starter Pack Variety                1111000000000000000000000000000000000002000000001000000000000000000000000000000000001000000000000000000000000000000000004B0003B    
2014111411836730003 02628High Nicotine Cartridge Java Jolt       1111000000000000000000000000000000000000000000000000000000000000000000000000000000001000000000000000000000000000000000000B5003B    
2014111411131730005302543Magnificent Menthol Disposable          1111000000003000000000000000000000000001000000000000000000000000002000000000000000001000000000000000000000000000000000000B1011M    
2014111411131730005302550blu Disposable Classic Tobacco          1111000000004000000000000000000000000006000000000000000000000000003000000000000000004000000000000000000000000003000000003B1011C    
2014111411131730005 02567High Nicotine Cartridge Classic Tobacco 1111000000002000000000000000000000000003000000000000000000000000004000000000000000005000000000000000000000000001000000002B5002B    
2014111411131730005 02581High Nicotine Cartridge Magnificent Ment1111000000001000000000000000000000000001000000000000000000000000002000000000000000000000000000000000000000000000000000000B5001B    
2014111411131730005 02604High Nicotine Cartridge Cherry Crush    1111000000003000000000000000000000000002000000000000000000000000000000000000000000000000000000000000000000000000000000000B5004B    
2014111411131730005 02628High Nicotine Cartridge Java Jolt       1111000000001000000000000000000000000000000000000000000000000000000000000000000000000000000000000000000000000000000000000B5003B    
2014111411131730005303504Cherry Crush Disposable                 1111000000000000000007000000000000000000000000000000000000000000000000000000000000000000000000000000000000000000000000000B1013CH   
2014111411131730005 03365High Nicotine Cartridge Vivid Vanilla   1111000000000000000000000000000000000001000000000000000000000000002000000000000000000000000000000000000000000000000000000B5005B    
2014111411131730005 02710No Nicotine Cartridge Classic Tobacco   1111000000000000000000000000000000000000000000000000000000000000000000000000000000001000000000000000000000000000000000000B5062B    
2014111411131730005104332Blu Starter Pack Classic Tobacco        1111000000000000000000000000000000000000000000000000000000000000000000000000000000001000000000000000000000000000000000000B0001B    
2014111411131730005104578Blu Starter Pack Variety                1111000000000000000000000000000000000000000000000000000000000000000000000000000000002000000000000000000000000005000000005B0003B    
2014111411333450005302550blu Disposable Classic Tobacco          1111000000002000000001000000000000000000000000000000000002000000002000000000000000000000000000000000000000000002000000000B1011C    
2014111411333450005302543Magnificent Menthol Disposable          1111000000000000000001000000000000000000000000000000000000000000000000000000000000000000000000000000000000000002000000000B1011M    
2014111411333450005303504Cherry Crush Disposable                 1111000000000000000000000000000000000000000000000000000001000000000000000000000000000000000000000000000000000000000000000B1013CH   
2014111411581960004302550blu Disposable Classic Tobacco          1111000000025000000024000000025000000000000000025000000025000000025000000026000000031000000025000000030000000024000000027B1011C    
2014111411581960004 02567High Nicotine Cartridge Classic Tobacco 1111000000009000000005000000000000000005000000006000000005000000000000000005000000008000000008000000000000000000000000000B5002B    
2014111411581960004 02581High Nicotine Cartridge Magnificent Ment1111000000003000000000000000000000000004000000007000000000000000003000000000000000005000000004000000000-00000001000000000B5001B    
2014111411581960004 03365High Nicotine Cartridge Vivid Vanilla   1111000000002000000002000000003000000000000000002000000000000000000000000002000000000000000003000000004000000000000000000B5005B    
2014111411581960004104349Blu Starter Pack Magnificent Menthol    1111000000002000000000000000000000000000000000003000000000000000003000000003000000004000000003000000000000000004000000005B0002B    
2014111411581960004302543Magnificent Menthol Disposable          1111000000000000000009000000010000000009000000010000000000000000000000000000000000000000000000000000000000000000000000000B1011M    
2014111411581960004 02604High Nicotine Cartridge Cherry Crush    1111000000000000000003000000004000000000000000003000000002000000000000000000000000000000000004000000005000000003000000000B5004B    
2014111411581960004104332Blu Starter Pack Classic Tobacco        1111000000000000000003000000004000000004000000004000000003000000000000000004000000007000000003000000000000000005000000006B0001B    
2014111411581960004104578Blu Starter Pack Variety                1111000000000000000002000000003000000003000000003000000000000000002000000002000000003000000003000000000000000004000000003B0003B    
2014111411581960004 02628High Nicotine Cartridge Java Jolt       1111000000000000000000000000000000000000000000000000000000000000000000000001000000001000000000000000000000000000000000000B5003B    
2014111411581990001302543Magnificent Menthol Disposable          1111000000007000000006000000007000000006000000006000000005000000000000000007000000007000000000000000000000000000000000000B1011M    
2014111411581990001 02567High Nicotine Cartridge Classic Tobacco 1111000000005000000004000000003000000000000000000000000004000000000000000000000000000000000000000000000000000000000000000B5002B    
2014111411581990001 02581High Nicotine Cartridge Magnificent Ment1111000000003000000005000000001000000000000000000000000003000000002000000000000000000000000000000000000000000000000000000B5001B    
2014111411581990001 02604High Nicotine Cartridge Cherry Crush    1111000000002000000004000000002000000002000000003000000000000000000000000000000000005000000004000000005000000000000000003B5004B    
2014111411581990001 02628High Nicotine Cartridge Java Jolt       1111000000001000000001000000001000000000000000000000000000000000000000000000000000000000000000000000002000000000000000000B5003B    
2014111411581990001 03365High Nicotine Cartridge Vivid Vanilla   1111000000003000000002000000002000000002000000000000000000000000000000000002000000002000000000000000007000000000000000006B5005B    
2014111411581990001303504Cherry Crush Disposable                 1111000000006000000006000000006000000007000000005000000005000000000000000005000000000000000000000000000000000000000000000B1013CH   
2014111411581990001104349Blu Starter Pack Magnificent Menthol    1111000000002000000003000000002000000001000000002000000001000000001000000001000000001000000001000000003000000000000000000B0002B    
2014111411581990001104578Blu Starter Pack Variety                1111000000003000000000000000003000000003000000002000000002000000002000000000000000004000000003000000005000000000000000000B0003B    
2014111411581990001302550blu Disposable Classic Tobacco          1111000000000000000018000000020000000022000000022000000025000000000000000020000000035000000025000000042000000000000000000B1011C    
2014111411581990001104332Blu Starter Pack Classic Tobacco        1111000000000000000003000000002000000003000000004000000003000000000000000000000000003000000004000000007000000000000000000B0001B    
2014111411582000007302543Magnificent Menthol Disposable          1111000000004000000003000000006000000003000000000000000004000000003000000000000000000000000000000000000000000000000000000B1011M    
2014111411582000007302550blu Disposable Classic Tobacco          1111000000009000000010000000000000000012000000012000000011000000011000000011000000016000000012000000012000000000000000024B1011C    
2014111411582000007 02581High Nicotine Cartridge Magnificent Ment1111000000002000000000000000000000000003000000001000000003000000000000000000000000002000000000000000006000000000000000006B5001B    
2014111411582000007 02604High Nicotine Cartridge Cherry Crush    1111000000002000000002000000004000000000000000000000000000000000000000000000000000005000000000000000013000000000000000006B5004B    
2014111411582000007 03365High Nicotine Cartridge Vivid Vanilla   1111000000002000000001000000000000000003000000001000000001000000000000000002000000004000000000000000004000000000000000001B5005B    
2014111411582000007303504Cherry Crush Disposable                 1111000000005000000005000000006000000004000000007000000003000000000000000000000000000000000000000000000000000000000000000B1013CH   
2014111411582000007104332Blu Starter Pack Classic Tobacco        1111000000003000000003000000002000000003000000000000000000000000000000000000000000009000000000000000014000000000000000004B0001B    
2014111411582000007104349Blu Starter Pack Magnificent Menthol    1111000000002000000002000000001000000000000000000000000000000000000000000000000000005000000000000000009000000000000000003B0002B    
2014111411582000007104578Blu Starter Pack Variety                1111000000000000000002000000004000000002000000002000000002000000000000000002000000003000000002000000002000000000000000004B0003B    
2014111411582000007 02628High Nicotine Cartridge Java Jolt       1111000000000000000000000000000000000000000000002000000000000000000000000000000000000000000000000000000000000000000000000B5003B    
2014111411583300000302543Magnificent Menthol Disposable          1111000000001000000000000000000000000001000000001000000000000000000000000002000000001000000001000000000000000000000000000B1011M    
2014111411583300000302550blu Disposable Classic Tobacco          1111000000002000000001000000000000000002000000003000000001000000001000000002000000000000000001000000002000000001000000002B1011C    
2014111411583300000 03365High Nicotine Cartridge Vivid Vanilla   1111000000001000000001000000000000000000000000000000000000000000001000000001000000000000000000000000001000000000000000001B5005B    
2014111411583300000303504Cherry Crush Disposable                 1111000000001000000000000000000000000000000000000000000000000000000000000000000000000000000000000000000000000000000000000B1013CH   
2014111411583300000 02581High Nicotine Cartridge Magnificent Ment1111000000000000000001000000000000000000000000000000000000000000000000000000000000000000000000000000000000000001000000000B5001B    
2014111411583300000104332Blu Starter Pack Classic Tobacco        1111000000000000000001000000000000000000000000001000000000000000000000000000000000000000000000000000000000000000000000000B0001B    
2014111411583300000104578Blu Starter Pack Variety                1111000000000000000001000000000000000000000000000000000000000000000000000000000000000000000000000000000000000000000000001B0003B    
2014111411583300000 02604High Nicotine Cartridge Cherry Crush    1111000000000000000000000000000000000001000000001000000000000000000000000001000000000000000000000000000000000000000000000B5004B    
2014111411583300000104349Blu Starter Pack Magnificent Menthol    1111000000000000000000000000000000000001000000000000000000000000000000000000000000000000000000000000000000000000000000000B0002B    
2014111411583300000 02567High Nicotine Cartridge Classic Tobacco 1111000000000000000000000000000000000000000000000000000000000000002000000001000000001000000001000000000000000000000000001B5002B    
2014111411583300000 02628High Nicotine Cartridge Java Jolt       1111000000000000000000000000000000000000000000000000000000000000000000000001000000000000000000000000000000000000000000000B5003B    
2014111411232630005302543Magnificent Menthol Disposable          1111000000001000000001000000002000000000000000003000000000000000002000000001000000000000000003000000001000000001000000002B1011M    
2014111411232630005302550blu Disposable Classic Tobacco          1111000000006000000003000000009000000000000000005000000000000000004000000004000000000000000007000000006000000004000000005B1011C    
2014111411232630005 02567High Nicotine Cartridge Classic Tobacco 1111000000001000000002000000001000000000000000001000000000000000000000000000000000000000000005000000000000000001000000001B5002B    
2014111411232630005 02604High Nicotine Cartridge Cherry Crush    1111000000001000000001000000000000000000000000001000000000000000001000000000000000000000000000000000000000000000000000001B5004B    
2014111411232630005104578Blu Starter Pack Variety                1111000000001000000001000000001000000000000000001000000000000000002000000001000000000000000001000000002000000002000000001B0003B    
2014111411232630005 02581High Nicotine Cartridge Magnificent Ment1111000000000000000001000000001000000000000000000000000000000000000000000000000000000000000003000000001000000000000000000B5001B    
2014111411232630005 03365High Nicotine Cartridge Vivid Vanilla   1111000000000000000001000000002000000000000000001000000000000000000000000000000000000000000001000000000000000001000000000B5005B    
2014111411232630005104332Blu Starter Pack Classic Tobacco        1111000000000000000001000000000000000000000000001000000000000000000000000000000000000000000001000000000000000000000000001B0001B    
2014111411279360003302543Magnificent Menthol Disposable          1111000000001000000005000000003000000002000000002000000006000000000000000000000000002000000002000000005000000002000000001B1011M    
2014111411279360003302550blu Disposable Classic Tobacco          1111000000003000000008000000007000000004000000002000000013000000001000000000000000008000000005000000009000000004000000006B1011C    
2014111411279360003 02567High Nicotine Cartridge Classic Tobacco 1111000000001000000004000000003000000002000000002000000009000000000000000000000000003000000002000000006000000002000000001B5002B    
2014111411279360003303504Cherry Crush Disposable                 1111000000002000000008000000001000000000000000000000000005000000000000000000000000000000000000000000000000000000000000000B1013CH   
2014111411279360003104332Blu Starter Pack Classic Tobacco        1111000000001000000002000000002000000000000000002000000001000000000000000000000000001000000001000000005000000001000000001B0001B    
2014111411279360003104578Blu Starter Pack Variety                1111000000001000000003000000002000000001000000002000000001000000000000000000000000001000000002000000006000000002000000002B0003B    
2014111411279360003 02581High Nicotine Cartridge Magnificent Ment1111000000000000000001000000003000000000000000000000000010000000001000000000000000002000000000000000001000000000000000001B5001B    
2014111411279360003 02604High Nicotine Cartridge Cherry Crush    1111000000000000000003000000002000000002000000001000000009000000000000000000000000001000000002000000004000000001000000002B5004B    
2014111411279360003 03365High Nicotine Cartridge Vivid Vanilla   1111000000000000000002000000002000000000000000000000000012000000000000000000000000002000000000000000004000000003000000003B5005B    
2014111411279360003104349Blu Starter Pack Magnificent Menthol    1111000000000000000001000000000000000001000000001000000002000000000000000000000000001000000000000000003000000001000000000B0002B    
2014111411279360003 02628High Nicotine Cartridge Java Jolt       1111000000000000000000000000000000000000000000000000000007000000000000000000000000000000000001000000001000000003000000000B5003B    
2014111411279360003 02710No Nicotine Cartridge Classic Tobacco   1111000000000000000000000000000000000000000000000000000009000000000000000000000000001000000001000000000000000000000000000B5062B    
2014111411279360003 02734No Nicotine Cartridge Magnificent Mentho1111000000000000000000000000000000000000000000000000000007000000000000000000000000000000000000000000000000000000000000000B5061B    
2014111411279360003 02758No Nicotine Cartridge Cherry Crush      1111000000000000000000000000000000000000000000000000000007000000000000000000000000000000000000000000003000000000000000000B5064B    
2014111411279360003 03396No Nicotine Cartridge Vivid Vanilla     1111000000000000000000000000000000000000000000000000000001000000000000000000000000000000000000000000000000000000000000000B5065B    
2014111411583260006302543Magnificent Menthol Disposable          1111000000007000000000000000006000000000000000016000000000000000008000000011000000010000000008000000000000000000000000000B1011M    
2014111411583260006302550blu Disposable Classic Tobacco          1111000000015000000000000000016000000018000000015000000016000000017000000018000000020000000000000000016000000018000000018B1011C    
2014111411583260006 02567High Nicotine Cartridge Classic Tobacco 1111000000006000000000000000006000000006000000006000000006000000008000000000000000006000000000000000008000000008000000000B5002B    
2014111411583260006 02581High Nicotine Cartridge Magnificent Ment1111000000003000000004000000000000000000000000007000000007000000000000000005000000000000000004000000000000000000000000006B5001B    
2014111411583260006104332Blu Starter Pack Classic Tobacco        1111000000006000000004000000000000000006000000011000000005000000004000000000000000006000000006000000006000000010000000000B0001B    
2014111411583260006104349Blu Starter Pack Magnificent Menthol    1111000000004000000000000000004000000004000000006000000003000000003000000005000000004000000004000000000000000005000000000B0002B    
2014111411583260006 03365High Nicotine Cartridge Vivid Vanilla   1111000000000000000000000000004000000003000000003000000003000000003000000002000000000000000003000000008000000004000000000B5005B    
2014111411583260006104578Blu Starter Pack Variety                1111000000000000000000000000004000000005000000008000000004000000004000000004000000005000000007000000000000000000000000006B0003B    
2014111411583260006 02604High Nicotine Cartridge Cherry Crush    1111000000000000000000000000000000000004000000008000000004000000000000000004000000000000000004000000006000000005000000000B5004B    
2014111411583260006 02628High Nicotine Cartridge Java Jolt       1111000000000000000000000000000000000000000000001000000000000000000000000001000000000000000000000000000000000000000000000B5003B    
2014111411604950007302543Magnificent Menthol Disposable          1111000000001000000001000000000000000001000000001000000000000000001000000001000000000000000001000000000000000001000000001B1011M    
2014111411604950007302550blu Disposable Classic Tobacco          1111000000003000000003000000000000000003000000002000000003000000002000000001000000002000000003000000000000000002000000002B1011C    
2014111411604950007 02567High Nicotine Cartridge Classic Tobacco 1111000000001000000001000000000000000000000000000000000000000000000000000000000000000000000000000000000000000000000000000B5002B    
2014111411604950007303504Cherry Crush Disposable                 1111000000002000000001000000000000000001000000000000000000000000000000000000000000000000000000000000000000000000000000000B1013CH   
2014111411604950007104332Blu Starter Pack Classic Tobacco        1111000000000000000000000000000000000000000000001000000000000000000000000000000000000000000000000000000000000000000000000B0001B    
2014111411604950007 03365High Nicotine Cartridge Vivid Vanilla   1111000000000000000000000000000000000000000000000000000000000000000000000001000000000000000000000000000000000000000000000B5005B    
2014111411604950007104578Blu Starter Pack Variety                1111000000000000000000000000000000000000000000000000000000000000000000000000000000001000000000000000000000000000000000000B0003B    
2014111411709150007302550blu Disposable Classic Tobacco          1111000000001000000000000000002000000000000000001000000000000000001000000000000000000000000000000000003000000000000000002B1011C    
2014111411709150007 02567High Nicotine Cartridge Classic Tobacco 1111000000001000000000000000000000000000000000000000000000000000000000000000000000000000000000000000000000000000000000001B5002B    
2014111411709150007 03365High Nicotine Cartridge Vivid Vanilla   1111000000000000000000000000000000000000000000001000000000000000000000000000000000000000000000000000001000000000000000000B5005B    
2014111411709150007302543Magnificent Menthol Disposable          1111000000000000000000000000000000000000000000000000000000000000001000000000000000000000000000000000002000000000000000000B1011M    
2014111411709150007 02581High Nicotine Cartridge Magnificent Ment1111000000000000000000000000000000000000000000000000000000000000000000000000000000000000000000000000000000000000000000001B5001B    
2014111411709150007104332Blu Starter Pack Classic Tobacco        1111000000000000000000000000000000000000000000000000000000000000000000000000000000000000000000000000000000000000000000001B0001B    
2014111411896540004104332Blu Starter Pack Classic Tobacco        1111000000001000000000000000000000000000000000000000000000000000000000000000000000000000000000000000000000000000000000000B0001B    
2014111411896540004302550blu Disposable Classic Tobacco          1111000000000000000001000000000000000000000000000000000000000000000000000000000000001000000000000000000000000001000000000B1011C    
2014111411896540004104349Blu Starter Pack Magnificent Menthol    1111000000000000000001000000000000000000000000000000000000000000000000000000000000000000000000000000000000000000000000000B0002B    
2014111411896540004303504Cherry Crush Disposable                 1111000000000000000000000000000000000000000000000000000000000000000000000000000000000000000001000000000000000000000000000B1013CH   
2014111411247690002302550blu Disposable Classic Tobacco          1111000000002000000000000000000000000002000000000000000002000000000000000000000000000000000000000000000000000003000000003B1011C    
2014111411247690002 02567High Nicotine Cartridge Classic Tobacco 1111000000001000000000000000000000000001000000000000000000000000000000000000000000000000000000000000000000000000000000002B5002B    
2014111411247690002303504Cherry Crush Disposable                 1111000000001000000000000000000000000001000000000000000000000000000000000000000000000000000000000000000000000000000000000B1013CH   
2014111411247690002104332Blu Starter Pack Classic Tobacco        1111000000001000000000000000000000000000000000000000000000000000000000000000000000000000000000000000000000000000000000000B0001B    
2014111411247690002302543Magnificent Menthol Disposable          1111000000000000000000000000000000000001000000000000000001000000000000000000000000000000000000000000000000000001000000000B1011M    
2014111411247690002 02604High Nicotine Cartridge Cherry Crush    1111000000000000000000000000000000000000000000000000000000000000000000000000000000000000000000000000000000000000000000001B5004B    
2014111411397680002302550blu Disposable Classic Tobacco          1111000000001000000000000000000000000001000000000000000001000000000000000001000000000000000000000000000000000000000000001B1011C    
2014111411397680002 02567High Nicotine Cartridge Classic Tobacco 1111000000001000000000000000000000000000000000000000000000000000001000000000000000000000000000000000000000000000000000000B5002B    
2014111411397680002 02581High Nicotine Cartridge Magnificent Ment1111000000001000000000000000000000000000000000000000000000000000000000000000000000000000000000000000000000000000000000001B5001B    
2014111411397680002 02604High Nicotine Cartridge Cherry Crush    1111000000001000000000000000000000000000000000000000000001000000001000000000000000000000000000000000000000000000000000000B5004B    
2014111411397680002 03365High Nicotine Cartridge Vivid Vanilla   1111000000001000000000000000000000000000000000000000000000000000000000000000000000000000000000000000000000000000000000001B5005B    
2014111411397680002303504Cherry Crush Disposable                 1111000000000000000001000000000000000001000000000000000001000000001000000000000000000000000000000000000000000000000000000B1013CH   
2014111411397680002302543Magnificent Menthol Disposable          1111000000000000000000000000000000000001000000000000000000000000000000000001000000000000000000000000000000000000000000001B1011M    
2014111411397680002104332Blu Starter Pack Classic Tobacco        1111000000000000000000000000000000000000000000001000000000000000000000000000000000000000000000000000001000000000000000000B0001B    
2014111411397680002104349Blu Starter Pack Magnificent Menthol    1111000000000000000000000000000000000000000000001000000000000000000000000000000000000000000000000000000000000000000000000B0002B    
2014111411397680002 02628High Nicotine Cartridge Java Jolt       1111000000000000000000000000000000000000000000000000000000000000001000000000000000000000000000000000000000000000000000000B5003B    
2014111411581970003302543Magnificent Menthol Disposable          1111000000004000000004000000000000000004000000005000000006000000004000000000000000005000000000000000000000000000000000000B1011M    
2014111411581970003302550blu Disposable Classic Tobacco          1111000000012000000020000000000000000014000000014000000016000000000000000018000000023000000020000000042000000000000000000B1011C    
2014111411581970003 03365High Nicotine Cartridge Vivid Vanilla   1111000000002000000003000000003000000000000000004000000003000000000000000000000000003000000003000000007000000000000000005B5005B    
2014111411581970003303504Cherry Crush Disposable                 1111000000006000000009000000006000000006000000006000000000000000000000000000000000000000000000000000024000000000000000000B1013CH   
2014111411581970003 02567High Nicotine Cartridge Classic Tobacco 1111000000000000000004000000007000000000000000012000000000000000000000000000000000000000000007000000000000000000000000000B5002B    
2014111411581970003 02581High Nicotine Cartridge Magnificent Ment1111000000000000000003000000000000000000000000002000000003000000000000000000000000000000000000000000000000000000000000000B5001B    
2014111411581970003 02628High Nicotine Cartridge Java Jolt       1111000000000000000001000000000000000000000000002000000000000000000000000001000000000000000000000000000000000000000000000B5003B    
2014111411581970003104332Blu Starter Pack Classic Tobacco        1111000000000000000002000000000000000003000000002000000000000000000000000000000000010000000003000000007000000000000000000B0001B    
2014111411581970003104349Blu Starter Pack Magnificent Menthol    1111000000000000000002000000003000000000000000003000000000000000000000000000000000002000000001000000001000000000000000002B0002B    
2014111411581970003104578Blu Starter Pack Variety                1111000000000000000002000000002000000000000000003000000002000000000000000000000000006000000000000000009000000000000000000B0003B    
2014111411581970003 02604High Nicotine Cartridge Cherry Crush    1111000000000000000000000000000000000004000000007000000004000000003000000000000000003000000004000000008000000000000000000B5004B    
2014111411582010006302550blu Disposable Classic Tobacco          1111000000007000000000000000008000000009000000007000000008000000000000000014000000013000000009000000008000000010000000000B1011C    
2014111411582010006 02567High Nicotine Cartridge Classic Tobacco 1111000000002000000000000000000000000000000000000000000000000000000000000009000000000000000000000000000000000000000000000B5002B    
2014111411582010006 02604High Nicotine Cartridge Cherry Crush    1111000000002000000000000000009000000000000000002000000001000000000000000000000000000000000000000000003000000000000000002B5004B    
2014111411582010006104332Blu Starter Pack Classic Tobacco        1111000000003000000000000000000000000003000000003000000000000000000000000012000000006000000009000000003000000004000000003B0001B    
2014111411582010006104349Blu Starter Pack Magnificent Menthol    1111000000002000000000000000002000000000000000000000000000000000004000000010000000008000000008000000003000000003000000000B0002B    
2014111411582010006302543Magnificent Menthol Disposable          1111000000000000000003000000003000000000000000000000000005000000004000000010000000000000000000000000000000000000000000000B1011M    
2014111411582010006 02581High Nicotine Cartridge Magnificent Ment1111000000000000000002000000000000000002000000003000000000000000000000000006000000006000000000000000000-00000001000000000B5001B    
2014111411582010006104578Blu Starter Pack Variety                1111000000000000000000000000004000000002000000002000000002000000000000000002000000003000000003000000000000000002000000003B0003B    
2014111411582010006 03365High Nicotine Cartridge Vivid Vanilla   1111000000000000000000000000000000000002000000003000000002000000001000000001000000000000000000000000001000000002000000000B5005B    
2014111411582010006 02628High Nicotine Cartridge Java Jolt       1111000000000000000000000000000000000000000000000000000001000000000000000000000000000000000000000000000000000000000000000B5003B    
2014111411582010006303504Cherry Crush Disposable                 1111000000000000000000000000000000000000000000000000000000000000000000000000000000000000000000000000000000000018000000018B1013CH   
2014111411582350006302550blu Disposable Classic Tobacco          1111000000021000000022000000021000000000000000026000000026000000026000000025000000025000000025000000026000000026000000000B1011C    
2014111411582350006 02567High Nicotine Cartridge Classic Tobacco 1111000000003000000004000000000000000000000000000000000000000000000000000000000000000000000000000000000000000000000000000B5002B    
2014111411582350006 02581High Nicotine Cartridge Magnificent Ment1111000000003000000004000000000000000003000000000000000003000000004000000000000000000000000000000000000000000000000000000B5001B    
2014111411582350006 02604High Nicotine Cartridge Cherry Crush    1111000000002000000002000000018000000002000000000000000000000000002000000001000000000000000003000000000000000000000000000B5004B    
2014111411582350006 03365High Nicotine Cartridge Vivid Vanilla   1111000000001000000001000000000000000002000000001000000001000000002000000000000000000000000000000000000000000000000000003B5005B    
2014111411582350006104332Blu Starter Pack Classic Tobacco        1111000000003000000004000000003000000000000000003000000004000000004000000004000000004000000004000000004000000000000000005B0001B    
2014111411582350006302543Magnificent Menthol Disposable          1111000000000000000008000000009000000009000000000000000000000000000000000000000000000000000000000000000000000000000000000B1011M    
2014111411582350006104349Blu Starter Pack Magnificent Menthol    1111000000000000000003000000002000000002000000000000000004000000000000000002000000006000000000000000002000000000000000003B0002B    
2014111411582350006104578Blu Starter Pack Variety                1111000000000000000003000000006000000003000000000000000003000000005000000003000000003000000003000000000000000003000000003B0003B    
2014111411583240016302550blu Disposable Classic Tobacco          1111000000044000000000000000042000000045000000050000000000000000000000000100000000050000000050000000050000000050000000050B1011C    
2014111411583240016 02581High Nicotine Cartridge Magnificent Ment1111000000004000000004000000000000000004000000011000000000000000000000000000000000006000000000000000000000000000000000000B5001B    
2014111411583240016 02604High Nicotine Cartridge Cherry Crush    1111000000003000000000000000034000000000000000000000000000000000000000000010000000005000000000000000000000000006000000006B5004B    
2014111411583240016 03365High Nicotine Cartridge Vivid Vanilla   1111000000003000000000000000000000000000000000000000000000000000000000000014000000009000000004000000005000000003000000000B5005B    
2014111411583240016104332Blu Starter Pack Classic Tobacco        1111000000006000000000000000005000000000000000014000000006000000000000000011000000008000000007000000000000000008000000008B0001B    
2014111411583240016104578Blu Starter Pack Variety                1111000000003000000000000000010000000004000000007000000000000000000000000007000000005000000000000000005000000006000000006B0003B    
2014111411583240016302543Magnificent Menthol Disposable          1111000000000000000020000000000000000000000000000000000000000000000000000100000000020000000017000000018000000017000000021B1011M    
2014111411583240016 02567High Nicotine Cartridge Classic Tobacco 1111000000000000000008000000013000000007000000000000000000000000000000000020000000012000000000000000000000000011000000000B5002B    
2014111411583240016104349Blu Starter Pack Magnificent Menthol    1111000000000000000003000000000000000004000000007000000000000000004000000004000000008000000000000000000000000006000000004B0002B    
2014111411583240016 02628High Nicotine Cartridge Java Jolt       1111000000000000000000000000000000000000000000001000000000000000000000000000000000001000000000000000000000000000000000000B5003B    
2014111411583250007302543Magnificent Menthol Disposable          1111000000006000000006000000000000000010000000010000000010000000000000000022000000000000000000000000000000000000000000000B1011M    
2014111411583250007302550blu Disposable Classic Tobacco          1111000000018000000020000000000000000020000000020000000025000000000000000034000000038000000000000000022000000023000000022B1011C    
2014111411583250007 02567High Nicotine Cartridge Classic Tobacco 1111000000004000000000000000000000000006000000006000000007000000000000000018000000007000000004000000000000000000000000000B5002B    
2014111411583250007 02581High Nicotine Cartridge Magnificent Ment1111000000003000000004000000000000000004000000000000000006000000000000000011000000012000000006000000000000000000000000000B5001B    
2014111411583250007 02604High Nicotine Cartridge Cherry Crush    1111000000003000000000000000003000000000000000009000000000000000004000000006000000004000000000000000000000000003000000003B5004B    
2014111411583250007 03365High Nicotine Cartridge Vivid Vanilla   1111000000003000000000000000004000000004000000006000000007000000000000000006000000004000000003000000003000000000000000000B5005B    
2014111411583250007303504Cherry Crush Disposable                 1111000000010000000011000000011000000009000000008000000008000000010000000012000000008000000000000000000000000005000000000B1013CH   
2014111411583250007104578Blu Starter Pack Variety                1111000000003000000002000000003000000003000000003000000003000000000000000004000000003000000003000000000000000005000000004B0003B    
2014111411583250007 02628High Nicotine Cartridge Java Jolt       1111000000000000000000000000001000000000000000001000000000000000000000000001000000000000000000000000000000000000000000000B5003B    
2014111411583250007104332Blu Starter Pack Classic Tobacco        1111000000000000000000000000000000000005000000000000000008000000000000000024000000007000000008000000004000000003000000000B0001B    
2014111411583250007104349Blu Starter Pack Magnificent Menthol    1111000000000000000000000000000000000000000000000000000000000000000000000024000000006000000009000000000000000000000000004B0002B    
2014111411583270005302543Magnificent Menthol Disposable          1111000000002000000000000000000000000000000000006000000008000000000000000000000000000000000000000000000000000000000000000B1011M    
2014111411583270005 02567High Nicotine Cartridge Classic Tobacco 1111000000005000000000000000009000000000000000009000000005000000006000000006000000008000000006000000006000000000000000000B5002B    
2014111411583270005 02581High Nicotine Cartridge Magnificent Ment1111000000004000000000000000000000000000000000004000000004000000007000000008000000004000000008000000004000000000000000003B5001B    
2014111411583270005 02604High Nicotine Cartridge Cherry Crush    1111000000002000000004000000005000000000000000005000000000000000003000000000000000008000000004000000004000000007000000000B5004B    
2014111411583270005303504Cherry Crush Disposable                 1111000000002000000002000000002000000000000000005000000005000000006000000003000000003000000004000000002000000000000000000B1013CH   
2014111411583270005302550blu Disposable Classic Tobacco          1111000000000000000008000000009000000000000000012000000020000000011000000014000000015000000008000000008000000008000000010B1011C    
2014111411583270005 03365High Nicotine Cartridge Vivid Vanilla   1111000000000000000004000000003000000002000000005000000002000000000000000000000000002000000003000000004000000000000000006B5005B    
2014111411583270005104349Blu Starter Pack Magnificent Menthol    1111000000000000000002000000000000000000000000005000000000000000000000000009000000002000000004000000002000000003000000002B0002B    
2014111411583270005104578Blu Starter Pack Variety                1111000000000000000003000000003000000000000000004000000005000000003000000000000000000000000004000000004000000007000000004B0003B    
2014111411583270005 02628High Nicotine Cartridge Java Jolt       1111000000000000000000000000001000000000000000000000000000000000000000000000000000000000000000000000000000000000000000000B5003B    
2014111411583270005104332Blu Starter Pack Classic Tobacco        1111000000000000000000000000000000000005000000006000000004000000006000000006000000003000000005000000000000000004000000005B0001B    
2014111411871920007302543Magnificent Menthol Disposable          1111000000006000000006000000000000000000000000008000000008000000007000000008000000007000000008000000008000000012000000000B1011M    
2014111411871920007302550blu Disposable Classic Tobacco          1111000000012000000000000000000000000018000000025000000015000000016000000018000000016000000016000000018000000014000000012B1011C    
2014111411871920007 02604High Nicotine Cartridge Cherry Crush    1111000000002000000000000000012000000003000000005000000003000000002000000000000000002000000002000000004000000000000000000B5004B    
2014111411871920007104349Blu Starter Pack Magnificent Menthol    1111000000002000000000000000003000000000000000003000000003000000003000000005000000003000000000000000003000000005000000000B0002B    
2014111411871920007104578Blu Starter Pack Variety                1111000000002000000000000000004000000003000000002000000004000000000000000003000000005000000003000000000000000003000000003B0003B    
2014111411871920007104332Blu Starter Pack Classic Tobacco        1111000000000000000004000000000000000004000000005000000005000000000000000008000000000000000005000000005000000007000000004B0001B    
2014111411871920007 02567High Nicotine Cartridge Classic Tobacco 1111000000000000000000000000004000000000000000005000000005000000007000000006000000000000000000000000000000000000000000000B5002B    
2014111411871920007 03365High Nicotine Cartridge Vivid Vanilla   1111000000000000000000000000002000000002000000002000000002000000000000000003000000003000000002000000003000000002000000002B5005B    
2014111411871920007 02581High Nicotine Cartridge Magnificent Ment1111000000000000000000000000000000000000000000009000000000000000003000000006000000003000000003000000006000000002000000000B5001B    
2014111411871920007 02628High Nicotine Cartridge Java Jolt       1111000000000000000000000000000000000000000000000000000000000000001000000000000000001000000000000000001000000000000000000B5003B    
2014111411908440001 02567High Nicotine Cartridge Classic Tobacco 1111000000001000000000000000000000000000000000000000000000000000000000000000000000000000000000000000000000000000000000000B5002B    
2014111411908440001 03365High Nicotine Cartridge Vivid Vanilla   1111000000001000000000000000000000000000000000000000000000000000000000000000000000000000000000000000000000000000000000000B5005B    
2014111411908440001104332Blu Starter Pack Classic Tobacco        1111000000001000000000000000000000000000000000000000000000000000000000000000000000001000000000000000000000000000000000000B0001B    
2014111411908440001302550blu Disposable Classic Tobacco          1111000000000000000000000000002000000000000000000000000001000000000000000000000000001000000001000000000000000001000000002B1011C    
2014111411908440001104578Blu Starter Pack Variety                1111000000000000000000000000001000000000000000000000000000000000000000000000000000000000000000000000000000000000000000000B0003B    
2014111411908440001 02604High Nicotine Cartridge Cherry Crush    1111000000000000000000000000000000000000000000000000000000000000000000000000000000000000000000000000000000000001000000000B5004B    
2014111411908440001104349Blu Starter Pack Magnificent Menthol    1111000000000000000000000000000000000000000000000000000000000000000000000000000000000000000000000000000000000001000000000B0002B    
2014111411582030004302550blu Disposable Classic Tobacco          1111000000008-00000001000000010000000010000000011000000012000000015000000014000000016000000014000000012000000011000000014B1011C    
2014111411582030004 02567High Nicotine Cartridge Classic Tobacco 1111000000003000000000000000000000000000000000000000000000000000000000000000000000000000000000000000000000000000000000000B5002B    
2014111411582030004 02604High Nicotine Cartridge Cherry Crush    1111000000002000000000000000000000000005000000001000000002000000000000000003000000002000000002000000002000000000000000000B5004B    
2014111411582030004104578Blu Starter Pack Variety                1111000000002000000000000000000000000006000000006000000000000000000000000003000000003000000003000000003000000003000000000B0003B    
2014111411582030004104332Blu Starter Pack Classic Tobacco        1111000000000000000004000000000000000000000000006000000000000000000000000024000000010000000010000000004000000000000000000B0001B    
2014111411582030004 03365High Nicotine Cartridge Vivid Vanilla   1111000000000000000000000000000000000006000000000000000002000000002000000002000000004000000001000000002000000001000000000B5005B    
2014111411582030004302543Magnificent Menthol Disposable          1111000000000000000000000000000000000000000000003000000000000000000000000014000000000000000000000000000000000000000000000B1011M    
2014111411582030004 02581High Nicotine Cartridge Magnificent Ment1111000000000000000000000000000000000000000000004000000005000000000000000020000000000000000000000000000000000000000000000B5001B    
2014111411582030004 02628High Nicotine Cartridge Java Jolt       1111000000000000000000000000000000000000000000001000000000000000000000000000000000000000000001000000001000000000000000000B5003B    
2014111411582030004104349Blu Starter Pack Magnificent Menthol    1111000000000000000000000000000000000000000000000000000000000000000000000020000000010000000008000000000000000002000000000B0002B    
2014111411582030004303504Cherry Crush Disposable                 1111000000000000000000000000000000000000000000000000000000000000000000000000000000000000000000000000000000000030000000029B1013CH   
2014111411771350007302543Magnificent Menthol Disposable          1111000000001000000002000000000000000000000000002000000000000000003000000000000000001000000000000000000000000000000000005B1011M    
2014111411771350007302550blu Disposable Classic Tobacco          1111000000001000000004000000000000000000000000000000000000000000006000000000000000001000000000000000002000000000000000007B1011C    
2014111411771350007303504Cherry Crush Disposable                 1111000000004000000003000000000000000000000000003000000000000000003000000000000000000000000000000000003000000000000000004B1013CH   
2014111411771350007 02567High Nicotine Cartridge Classic Tobacco 1111000000000000000004000000000000000000000000000000000000000000000000000000000000000000000000000000005000000000000000000B5002B    
2014111411771350007 02604High Nicotine Cartridge Cherry Crush    1111000000000000000001000000000000000000000000001000000000000000001000000000000000000000000000000000000000000000000000000B5004B    
2014111411771350007104332Blu Starter Pack Classic Tobacco        1111000000000000000002000000000000000000000000001000000000000000000000000000000000000000000000000000002000000000000000003B0001B    
2014111411771350007104349Blu Starter Pack Magnificent Menthol    1111000000000000000001000000000000000000000000000000000000000000001000000000000000001000000000000000001000000000000000000B0002B    
2014111411771350007 02710No Nicotine Cartridge Classic Tobacco   1111000000000000000000000000000000000000000000000000000000000000001000000000000000000000000000000000000000000000000000000B5062B    
2014111411771350007 03365High Nicotine Cartridge Vivid Vanilla   1111000000000000000000000000000000000000000000000000000000000000001000000000000000000000000000000000002000000000000000000B5005B    
2014111411771350007104578Blu Starter Pack Variety                1111000000000000000000000000000000000000000000000000000000000000002000000000000000000000000000000000000000000000000000003B0003B    
2014111411771350007 03396No Nicotine Cartridge Vivid Vanilla     1111000000000000000000000000000000000000000000000000000000000000000000000000000000001000000000000000000000000000000000000B5065B    
2014111411771350007 02581High Nicotine Cartridge Magnificent Ment1111000000000000000000000000000000000000000000000000000000000000000000000000000000000000000000000000004000000000000000001B5001B    
2014111411813990000302550blu Disposable Classic Tobacco          1111000000020000000000000000027000000000000000009000000000000000000000000000000000000000000000000000000000000000000000000B1011C    
2014111411813990000 02567High Nicotine Cartridge Classic Tobacco 1111000000000000000000000000020000000000000000034000000000000000000000000000000000000000000000000000000000000000000000000B5002B    
2014111411815000005302543Magnificent Menthol Disposable          1111000000013000000005000000000000000000000000000000000000000000000000000002000000000000000000000000000000000000000000000B1011M    
2014111411815000005302550blu Disposable Classic Tobacco          1111000000015000000005000000000000000000000000000000000000000000000000000002000000000000000003000000010000000010000000003B1011C    
2014111411815000005 02567High Nicotine Cartridge Classic Tobacco 1111000000002000000002000000000000000000000000000000000002000000000000000003000000000000000003000000000000000002000000000B5002B    
2014111411815000005 02581High Nicotine Cartridge Magnificent Ment1111000000001000000000000000000000000000000000000000000000000000000000000003000000000000000000000000000000000000000000000B5001B    
2014111411815000005303504Cherry Crush Disposable                 1111000000012000000001000000000000000000000000000000000000000000000000000000000000000000000003000000005000000010000000005B1013CH   
2014111411815000005104332Blu Starter Pack Classic Tobacco        1111000000004000000000000000000000000000000000000000000000000000000000000000000000000000000003000000004000000000000000001B0001B    
2014111411815000005104349Blu Starter Pack Magnificent Menthol    1111000000004000000001000000000000000000000000000000000002000000000000000000000000000000000000000000000000000000000000000B0002B    
2014111411815000005104578Blu Starter Pack Variety                1111000000011000000001000000000000000000000000000000000000000000000000000000000000000000000000000000000000000000000000000B0003B    
2014111411815000005 03365High Nicotine Cartridge Vivid Vanilla   1111000000000000000000000000000000000000000000000000000001000000000000000002000000000000000001000000002000000000000000000B5005B    
2014111411815000005 02604High Nicotine Cartridge Cherry Crush    1111000000000000000000000000000000000000000000000000000000000000000000000002000000000000000002000000001000000000000000000B5004B    
2014111411815000005 02734No Nicotine Cartridge Magnificent Mentho1111000000000000000000000000000000000000000000000000000000000000000000000001000000000000000000000000000000000000000000000B5061B    
2014111411815000005 02710No Nicotine Cartridge Classic Tobacco   1111000000000000000000000000000000000000000000000000000000000000000000000000000000000000000001000000001000000000000000000B5062B    
2014111411815000005 03396No Nicotine Cartridge Vivid Vanilla     1111000000000000000000000000000000000000000000000000000000000000000000000000000000000000000001000000001000000000000000000B5065B    
2014111411135650001302550blu Disposable Classic Tobacco          1111000000001000000000000000000000000000000000000000000000000000000000000000000000002000000000000000000000000000000000001B1011C    
2014111411135650001 02581High Nicotine Cartridge Magnificent Ment1111000000001000000000000000000000000000000000000000000000000000000000000000000000001000000000000000000000000000000000001B5001B    
2014111411135650001302543Magnificent Menthol Disposable          1111000000000000000000000000000000000000000000001000000000000000000000000000000000000000000000000000000000000000000000000B1011M    
2014111411135650001104332Blu Starter Pack Classic Tobacco        1111000000000000000000000000000000000000000000001000000000000000000000000000000000000000000000000000000000000000000000001B0001B    
2014111411135650001104349Blu Starter Pack Magnificent Menthol    1111000000000000000000000000000000000000000000001000000000000000000000000000000000000000000000000000000000000000000000000B0002B    
2014111411135650001 03365High Nicotine Cartridge Vivid Vanilla   1111000000000000000000000000000000000000000000000000000000000000000000000000000000000000000000000000000000000000000000001B5005B    
2014111411153200002302543Magnificent Menthol Disposable          1111000000002000000002000000003000000000000000001000000000000000002000000002000000000000000002000000002000000000000000005B1011M    
2014111411153200002302550blu Disposable Classic Tobacco          1111000000004000000004000000006000000000000000005000000002000000006000000005000000000000000005000000006000000000000000011B1011C    
2014111411153200002 02567High Nicotine Cartridge Classic Tobacco 1111000000001000000001000000001000000000000000001000000000000000001000000001000000000000000001000000001000000000000000003B5002B    
2014111411153200002 02581High Nicotine Cartridge Magnificent Ment1111000000001000000001000000001000000000000000000000000000000000001000000001000000000000000001000000000000000000000000002B5001B    
2014111411153200002 02604High Nicotine Cartridge Cherry Crush    1111000000001000000000000000001000000000000000000000000000000000001000000001000000000000000001000000002000000000000000001B5004B    
2014111411153200002 02628High Nicotine Cartridge Java Jolt       1111000000001000000000000000001000000000000000000000000000000000001000000000000000000000000001000000001000000000000000001B5003B    
2014111411153200002303504Cherry Crush Disposable                 1111000000003000000004000000005000000000000000004000000004000000000000000000000000000000000000000000000000000000000000000B1013CH   
2014111411153200002104332Blu Starter Pack Classic Tobacco        1111000000000000000001000000000000000000000000000000000000000000001000000000000000000000000000000000001000000000000000001B0001B    
2014111411153200002 03365High Nicotine Cartridge Vivid Vanilla   1111000000000000000000000000001000000000000000000000000000000000000000000000000000000000000000000000000000000000000000001B5005B    
2014111411153200002104349Blu Starter Pack Magnificent Menthol    1111000000000000000000000000001000000000000000000000000000000000000000000000000000000000000001000000001000000000000000001B0002B    
2014111411153200002104578Blu Starter Pack Variety                1111000000000000000000000000001000000000000000000000000000000000001000000001000000000000000000000000001000000000000000001B0003B    
2014111411249700007302543Magnificent Menthol Disposable          1111000000002000000000000000000000000000000000000000000001000000000000000000000000000000000000000000000000000000000000000B1011M    
2014111411249700007302550blu Disposable Classic Tobacco          1111000000010000000000000000000000000000000000000000000006000000000000000000000000000000000002000000000000000000000000000B1011C    
2014111411249700007 02567High Nicotine Cartridge Classic Tobacco 1111000000002000000000000000000000000000000000000000000002000000000000000000000000000000000000000000000000000000000000000B5002B    
2014111411249700007 02604High Nicotine Cartridge Cherry Crush    1111000000005000000000000000000000000000000000000000000000000000000000000000000000000000000003000000000000000000000000000B5004B    
2014111411249700007 03365High Nicotine Cartridge Vivid Vanilla   1111000000003000000000000000000000000000000000000000000001000000000000000000000000000000000000000000000000000000000000000B5005B    
2014111411249700007104332Blu Starter Pack Classic Tobacco        1111000000003000000000000000000000000000000000000000000003000000000000000000000000000000000004000000000000000000000000000B0001B    
2014111411249700007 02710No Nicotine Cartridge Classic Tobacco   1111000000000000000000000000000000000000000000000000000002000000000000000000000000000000000000000000000000000000000000000B5062B    
2014111411249700007104578Blu Starter Pack Variety                1111000000000000000000000000000000000000000000000000000002000000000000000000000000000000000006000000000000000009000000000B0003B    
2014111411249700007303504Cherry Crush Disposable                 1111000000000000000000000000000000000000000000000000000000000000000000000000000000000000000020000000000000000000000000000B1013CH   
2014111411249700007104349Blu Starter Pack Magnificent Menthol    1111000000000000000000000000000000000000000000000000000000000000000000000000000000000000000000-00000009000000000000000000B0002B    
2014111411320120009302543Magnificent Menthol Disposable          1111000000004000000000000000003000000004000000007000000000000000002000000006000000005000000000000000005000000000000000000B1011M    
2014111411320120009302550blu Disposable Classic Tobacco          1111000000019000000000000000006000000013000000012000000000000000006000000009000000020000000000000000010000000013-00000001B1011C    
2014111411320120009 02567High Nicotine Cartridge Classic Tobacco 1111000000002000000000000000002000000003000000005000000000000000004000000002000000002000000000000000000000000002000000000B5002B    
2014111411320120009 02581High Nicotine Cartridge Magnificent Ment1111000000001000000000000000000000000001000000002000000000000000003000000001000000000000000000000000001000000001000000000B5001B    
2014111411320120009 02604High Nicotine Cartridge Cherry Crush    1111000000001000000000000000000000000001000000003000000000000000003000000001000000000000000000000000001000000000000000000B5004B    
2014111411320120009303504Cherry Crush Disposable                 1111000000011000000000000000004000000003000000000000000000000000000000000000000000000000000000000000000000000000000000000B1013CH   
2014111411320120009 02628High Nicotine Cartridge Java Jolt       1111000000000000000000000000001000000000000000001000000000000000001000000000000000000000000000000000000000000000000000000B5003B    
2014111411320120009 02710No Nicotine Cartridge Classic Tobacco   1111000000000000000000000000002000000000000000001000000000000000000000000000000000000000000000000000000000000001000000000B5062B    
2014111411320120009104349Blu Starter Pack Magnificent Menthol    1111000000000000000000000000001000000000000000003000000000000000001000000001000000001000000000000000001000000000000000000B0002B    
2014111411320120009104578Blu Starter Pack Variety                1111000000000000000000000000001000000001000000003000000000000000001000000001000000000000000000000000002000000000000000000B0003B    
2014111411320120009 02734No Nicotine Cartridge Magnificent Mentho1111000000000000000000000000000000000001000000000000000000000000000000000000000000000000000000000000000000000000000000000B5061B    
2014111411320120009 03365High Nicotine Cartridge Vivid Vanilla   1111000000000000000000000000000000000002000000001000000000000000003000000001000000000000000000000000002000000001000000000B5005B    
2014111411320120009104332Blu Starter Pack Classic Tobacco        1111000000000000000000000000000000000001000000003000000000000000002000000002000000002000000000000000003000000000000000000B0001B    
2014111411352070008302543Magnificent Menthol Disposable          1111000000001000000000000000000000000000000000000000000000000000000000000000000000000000000000000000000000000001000000000B1011M    
2014111411352070008302550blu Disposable Classic Tobacco          1111000000001000000000000000000000000000000000000000000000000000000000000001000000003000000000000000000000000001000000001B1011C    
2014111411352070008104578Blu Starter Pack Variety                1111000000001000000000000000000000000000000000000000000000000000000000000000000000002000000000000000000000000001000000000B0003B    
2014111411364730004302543Magnificent Menthol Disposable          1111000000001000000001000000003000000001000000002000000002000000001000000001000000003000000001000000001000000002000000004B1011M    
2014111411364730004302550blu Disposable Classic Tobacco          1111000000001000000004000000006000000005000000004000000002000000003000000006000000004000000006000000002000000004000000010B1011C    
2014111411364730004 02567High Nicotine Cartridge Classic Tobacco 1111000000001000000001000000004000000001000000001000000001000000000000000004000000001000000000000000003000000001000000000B5002B    
2014111411364730004 02604High Nicotine Cartridge Cherry Crush    1111000000001000000000000000001000000000000000000000000000000000001000000001000000001000000002000000001000000000000000002B5004B    
2014111411364730004303504Cherry Crush Disposable                 1111000000002000000000000000004000000002000000002000000000000000002000000001000000000000000000000000000000000000000000000B1013CH   
2014111411364730004104332Blu Starter Pack Classic Tobacco        1111000000001000000000000000001000000001000000000000000001000000000000000001000000001000000000000000001000000001000000000B0001B    
2014111411364730004104578Blu Starter Pack Variety                1111000000001000000001000000000000000001000000001000000000000000001000000001000000001000000001000000000000000001000000003B0003B    
2014111411364730004 02581High Nicotine Cartridge Magnificent Ment1111000000000000000001000000001000000000000000001000000000000000001000000001000000000000000000000000003000000000000000002B5001B    
2014111411364730004104349Blu Starter Pack Magnificent Menthol    1111000000000000000001000000000000000001000000000000000001000000000000000000000000001000000000000000000000000000000000000B0002B    
2014111411364730004 03365High Nicotine Cartridge Vivid Vanilla   1111000000000000000000000000001000000000000000000000000002000000001000000001000000000000000000000000001000000000000000003B5005B    
2014111411364730004 02628High Nicotine Cartridge Java Jolt       1111000000000000000000000000000000000000000000000000000000000000001000000000000000000000000000000000001000000000000000001B5003B    
2014111411366090000302543Magnificent Menthol Disposable          1111000000001000000000000000001000000001000000001000000000000000001000000000000000000000000000000000000000000000000000001B1011M    
2014111411366090000302550blu Disposable Classic Tobacco          1111000000002000000000000000002000000002000000001000000000000000002000000000000000002000000000000000000000000003000000002B1011C    
2014111411366090000 02567High Nicotine Cartridge Classic Tobacco 1111000000001000000000000000000000000000000000001000000000000000000000000000000000000000000000000000000000000001000000001B5002B    
2014111411366090000104332Blu Starter Pack Classic Tobacco        1111000000000000000000000000000000000000000000001000000000000000000000000000000000000000000000000000000000000000000000000B0001B    
2014111411366090000104349Blu Starter Pack Magnificent Menthol    1111000000000000000000000000000000000000000000000000000000000000001000000000000000000000000000000000000000000000000000000B0002B    
2014111411366090000 02604High Nicotine Cartridge Cherry Crush    1111000000000000000000000000000000000000000000000000000000000000000000000000000000001000000000000000000000000000000000000B5004B    
2014111411366090000 03365High Nicotine Cartridge Vivid Vanilla   1111000000000000000000000000000000000000000000000000000000000000000000000000000000001000000000000000000000000000000000000B5005B    
2014111411581940006302543Magnificent Menthol Disposable          1111000000002000000000000000000000000003000000006000000000000000002000000000000000000000000000000000000000000000000000000B1011M    
2014111411581940006302550blu Disposable Classic Tobacco          1111000000004000000004000000004000000005000000006000000004000000000000000000000000006000000007000000008000000005000000007B1011C    
2014111411581940006 02581High Nicotine Cartridge Magnificent Ment1111000000001000000000000000000000000000000000002000000000000000000000000000000000000000000000000000000000000000000000000B5001B    
2014111411581940006104332Blu Starter Pack Classic Tobacco        1111000000001000000000000000000000000000000000004000000000000000000000000004000000002000000002000000002000000002000000003B0001B    
2014111411581940006104578Blu Starter Pack Variety                1111000000000000000001000000000000000000000000002000000002000000000000000001000000001000000002000000002000000001000000001B0003B    
2014111411581940006 03365High Nicotine Cartridge Vivid Vanilla   1111000000000000000000000000001000000000000000001000000001000000001000000000000000001000000000000000002000000000000000001B5005B    
2014111411581940006 02604High Nicotine Cartridge Cherry Crush    1111000000000000000000000000000000000002000000001000000001000000000000000000000000000000000000000000003000000002000000001B5004B    
2014111411581940006104349Blu Starter Pack Magnificent Menthol    1111000000000000000000000000000000000000000000003000000000000000001000000001000000001000000002000000000000000001000000001B0002B    
2014111411582050002302550blu Disposable Classic Tobacco          1111000000009000000008000000009000000010000000000000000011000000019000000008000000008000000008000000008000000008000000005B1011C    
2014111411582050002104332Blu Starter Pack Classic Tobacco        1111000000000000000002000000000000000000000000003000000002000000002000000002000000003000000002000000000000000002000000003B0001B    
2014111411582050002104578Blu Starter Pack Variety                1111000000000000000002000000002000000000000000002000000002000000000000000002000000002000000000000000003000000004000000005B0003B    
2014111411582050002303504Cherry Crush Disposable                 1111000000000000000000-00000002000000000000000000000000000000000000000000000000000000000000000000000000000000014000000000B1013CH   
2014111411582050002104349Blu Starter Pack Magnificent Menthol    1111000000000000000000000000001000000000000000003000000000000000000000000000000000000000000000000000002000000002000000001B0002B    
2014111411582050002 02581High Nicotine Cartridge Magnificent Ment1111000000000000000000000000000000000002000000003000000000000000000000000000000000000000000000000000000000000000000000000B5001B    
2014111411582050002 02628High Nicotine Cartridge Java Jolt       1111000000000000000000000000000000000001000000000000000000000000000000000000000000000000000000000000000000000000000000000B5003B    
2014111411582050002 03365High Nicotine Cartridge Vivid Vanilla   1111000000000000000000000000000000000002000000003000000000000000001000000001000000003000000000000000000000000002000000003B5005B    
2014111411582050002 02567High Nicotine Cartridge Classic Tobacco 1111000000000000000000000000000000000000000000004000000000000000000000000000000000000000000000000000000000000000000000000B5002B    
2014111411582050002 02604High Nicotine Cartridge Cherry Crush    1111000000000000000000000000000000000000000000003000000000000000000000000000000000005000000002000000002000000002000000000B5004B    
2014111411003050028302543Magnificent Menthol Disposable          1111000000003000000000000000002000000001000000004000000000000000000000000000000000000000000002000000000000000004000000000B1011M    
2014111411003050028104332Blu Starter Pack Classic Tobacco        1111000000001000000000000000000000000001000000000000000002000000001000000001000000000000000001000000000000000000000000001B0001B    
2014111411003050028104349Blu Starter Pack Magnificent Menthol    1111000000001000000000000000001000000000000000000000000002000000000000000001000000000000000000000000000000000001000000000B0002B    
2014111411003050028104578Blu Starter Pack Variety                1111000000001000000000000000000000000001000000001000000000000000001000000001000000000000000001000000000000000000000000000B0003B    
2014111411003050028 02710No Nicotine Cartridge Classic Tobacco   1111000000000000000000000000001000000000000000000000000000000000000000000000000000000000000000000000000000000000000000000B5062B    
2014111411003050028 02758No Nicotine Cartridge Cherry Crush      1111000000000000000000000000000000000001000000000000000000000000000000000000000000000000000000000000000000000000000000000B5064B    
2014111411003050028 02581High Nicotine Cartridge Magnificent Ment1111000000000000000000000000000000000000000000001000000001000000000000000000000000000000000001000000000000000000000000001B5001B    
2014111411003050028 02604High Nicotine Cartridge Cherry Crush    1111000000000000000000000000000000000000000000000000000000000000000000000001000000000000000000000000000000000001000000000B5004B    
2014111411003050028302550blu Disposable Classic Tobacco          1111000000000000000000000000000000000000000000000000000000000000000000000000000000000000000004000000011000000006000000003B1011C    
2014111411003050028 02567High Nicotine Cartridge Classic Tobacco 1111000000000000000000000000000000000000000000000000000000000000000000000000000000000000000001000000020000000001000000001B5002B    
2014111411003050028 03365High Nicotine Cartridge Vivid Vanilla   1111000000000000000000000000000000000000000000000000000000000000000000000000000000000000000000000000000000000000000000001B5005B    
2014111411003050094302550blu Disposable Classic Tobacco          1111000000011000000000000000004000000008000000007000000005000000004000000009000000000000000000000000000000000000000000000B1011C    
2014111411003050094 02567High Nicotine Cartridge Classic Tobacco 1111000000003000000000000000000000000000000000000000000001000000000000000001000000000000000000000000000000000000000000000B5002B    
2014111411003050094 02581High Nicotine Cartridge Magnificent Ment1111000000002000000000000000000000000000000000000000000000000000000000000000000000000000000000000000000000000000000000000B5001B    
2014111411003050094 02604High Nicotine Cartridge Cherry Crush    1111000000003000000000000000002000000002000000002000000001000000001000000000000000000000000000000000000000000000000000000B5004B    
2014111411003050094303504Cherry Crush Disposable                 1111000000009000000000000000006000000004000000008000000004000000003000000000000000000000000000000000000000000000000000000B1013CH   
2014111411003050094 02758No Nicotine Cartridge Cherry Crush      1111000000000000000000000000001000000000000000000000000000000000000000000000000000000000000000000000000000000000000000000B5064B    
2014111411003050094302543Magnificent Menthol Disposable          1111000000000000000000000000000000000000000000000000000002000000000000000011000000003000000000000000000000000000000000000B1011M    
2014111411138620001302550blu Disposable Classic Tobacco          1111000000002000000000000000002000000001000000001000000003000000002000000000000000002000000000000000000000000002000000001B1011C    
2014111411138620001 02604High Nicotine Cartridge Cherry Crush    1111000000001000000000000000000000000001000000001000000000000000002000000000000000000000000000000000001000000000000000000B5004B    
